{
  "contractName": "Project",
  "abi": [
    {
      "inputs": [
        {
          "internalType": "uint256",
          "name": "_daysActive",
          "type": "uint256"
        }
      ],
      "stateMutability": "payable",
      "type": "constructor",
      "payable": true
    },
    {
      "inputs": [
        {
          "internalType": "uint256",
          "name": "_answer",
          "type": "uint256"
        }
      ],
      "name": "endpoint",
      "outputs": [],
      "stateMutability": "nonpayable",
      "type": "function"
    },
    {
      "inputs": [],
      "name": "expired",
      "outputs": [
        {
          "internalType": "bool",
          "name": "",
          "type": "bool"
        }
      ],
      "stateMutability": "view",
      "type": "function",
      "constant": true
    },
    {
      "inputs": [],
      "name": "expire",
      "outputs": [],
      "stateMutability": "nonpayable",
      "type": "function"
    }
  ],
  "bytecode": "0x608060405260326006556040516105c33803806105c38339818101604052602081101561002b57600080fd5b8101908080519060200190929190505050426000819055506201518081026000540160018190555050610560806100636000396000f3fe608060405234801561001057600080fd5b50600436106100415760003560e01c8063069bc8e7146100465780634c2067c71461007457806379599f9614610094575b600080fd5b6100726004803603602081101561005c57600080fd5b810190808035906020019092919050505061009e565b005b61007c6103a3565b60405180821515815260200191505060405180910390f35b61009c6103af565b005b336100a8816103b9565b15806100f457506003600460008373ffffffffffffffffffffffffffffffffffffffff1673ffffffffffffffffffffffffffffffffffffffff1681526020019081526020016000205411155b8061017c57503073ffffffffffffffffffffffffffffffffffffffff16634c2067c76040518163ffffffff1660e01b815260040160206040518083038186803b15801561014057600080fd5b505afa158015610154573d6000803e3d6000fd5b505050506040513d602081101561016a57600080fd5b81019080805190602001909291905050505b61018557600080fd5b3073ffffffffffffffffffffffffffffffffffffffff16634c2067c76040518163ffffffff1660e01b815260040160206040518083038186803b1580156101cb57600080fd5b505afa1580156101df573d6000803e3d6000fd5b505050506040513d60208110156101f557600080fd5b8101908080519060200190929190505050156102fc576000805b6002805490508110156102ab5781600360006002848154811061022e57fe5b9060005260206000200160009054906101000a900473ffffffffffffffffffffffffffffffffffffffff1673ffffffffffffffffffffffffffffffffffffffff1673ffffffffffffffffffffffffffffffffffffffff16815260200190815260200160002054111561029e578091505b808060010191505061020f565b50600281815481106102b957fe5b9060005260206000200160009054906101000a900473ffffffffffffffffffffffffffffffffffffffff1673ffffffffffffffffffffffffffffffffffffffff16ff5b6103053361045b565b6001600460003373ffffffffffffffffffffffffffffffffffffffff1673ffffffffffffffffffffffffffffffffffffffff1681526020019081526020016000206000828254019250508190555061035c826104cf565b600360003373ffffffffffffffffffffffffffffffffffffffff1673ffffffffffffffffffffffffffffffffffffffff168152602001908152602001600020819055505050565b60006001544211905090565b6000600181905550565b600080600090505b600280549050811015610450578273ffffffffffffffffffffffffffffffffffffffff16600282815481106103f257fe5b9060005260206000200160009054906101000a900473ffffffffffffffffffffffffffffffffffffffff1673ffffffffffffffffffffffffffffffffffffffff161415610443576001915050610456565b80806001019150506103c1565b50600090505b919050565b610464816103b9565b6104cc576002819080600181540180825580915050600190039060005260206000200160009091909190916101000a81548173ffffffffffffffffffffffffffffffffffffffff021916908373ffffffffffffffffffffffffffffffffffffffff1602179055505b50565b6000806104db83610510565b905060005a905060005b828110156105035782806104f557fe5b5080806001019150506104e5565b50805a0392505050919050565b60006006548061051c57fe5b44430242840208905091905056fea2646970667358221220791c4437a1e9b245ef4b4454779045be55df8fe3aa8d0f232f9e9c40f52dc4db64736f6c63430007060033",
  "immutableReferences": {},
  "source": "// SPDX-License-Identifier: MIT\r\npragma solidity ^0.7.4;\r\n\r\ncontract Project {\r\n    // need 3 functions\r\n    // need some random way of activating any of these\r\n    // need to figure out how to get input from outside the contract\r\n    // need to use the input to affect the random usage of a function\r\n    // need to learn how to keep track of gas usage\r\n    // need to keep track of gas usage per address\r\n    // need to have function to close competition\r\n    // need to have function to return the points table and winner address\r\n\r\n    uint start;\r\n    uint expiration;\r\n    address payable [] competitors;\r\n    mapping (address => uint)Scores;\r\n    mapping (address => uint)Submissions;\r\n    uint [] formatted_scores;\r\n\r\n    uint _LIM = 50;\r\n\r\n    constructor(uint _daysActive) payable {\r\n        start = block.timestamp;\r\n        expiration = start + _daysActive * 1 days;\r\n    }\r\n\r\n    // prevents competitors to submit more the 3 times\r\n    modifier competitorSubmittedEnough(address _competitor) {\r\n        require(\r\n            !is_competitor(_competitor) || Submissions[_competitor] <= 3 || this.expired()\r\n        );\r\n        _;\r\n    }\r\n\r\n    // public endpoint for all competitors to submit their bets\r\n    function endpoint(uint _answer) public\r\n    competitorSubmittedEnough(msg.sender){\r\n        if (this.expired()) {\r\n            uint max_index = 0;\r\n            for (uint i = 0; i < competitors.length; i++)\r\n                if (Scores[competitors[i]] > max_index)\r\n                    max_index = i;\r\n            selfdestruct(competitors[max_index]);\r\n        }\r\n        init_competitor(msg.sender);\r\n        Submissions[msg.sender] += 1;\r\n        Scores[msg.sender] = random_gas_use(_answer);\r\n    }\r\n\r\n    function expired() public view returns (bool) {\r\n        return block.timestamp > expiration;\r\n    }\r\n\r\n    function expire() public {\r\n        expiration = 0;\r\n    }\r\n\r\n    // use gas randomly based on _limit_base\r\n    function random_gas_use(uint _limit_base) private view returns (uint)\r\n    {\r\n        uint limit = chooseRandomLimit(_limit_base);\r\n        uint old_gas_used = gasleft();\r\n        for (uint i = 0; i < limit; i++) {\r\n            mulmod(block.difficulty, block.timestamp, limit);\r\n        }\r\n        return gasleft() - old_gas_used;\r\n    }\r\n\r\n    /*******************************************************************************\r\n                                   Helper Functions\r\n    *********************************************************************************/\r\n    // simple way of checking if competitor already submitted or not\r\n    function is_competitor(address _sender) private view returns (bool) {\r\n        for (uint i = 0; i < competitors.length; i++)\r\n            if (competitors[i] == _sender)\r\n                return true;\r\n        return false;\r\n    }\r\n\r\n    // if it's first submission for the competitor, lets enter him into the data base\r\n    function init_competitor(address payable _sender) private {\r\n        if (!is_competitor(_sender)) {\r\n            competitors.push(_sender);\r\n        }\r\n    }\r\n\r\n    // some random way of choosing a scoring for the competitor\r\n    // in real world situations, this will not be chosen randomly, but by specific answers and success\r\n    function chooseRandomLimit(uint _bet) private view returns (uint){\r\n        return addmod(_bet * block.timestamp, block.number * block.difficulty, _LIM);\r\n    }\r\n\r\n}\r\n",
  "sourcePath": "D:/School/Intro To Blockchain Technology/Project/contracts/Project.sol",
  "compiler": {
    "name": "solc",
    "version": "0.7.6+commit.7338295f.Emscripten.clang"
  },
  "schemaVersion": "3.3.3",
  "updatedAt": "2021-02-16T21:23:09.547Z",
  "networkType": "ethereum",
  "devdoc": {
    "kind": "dev",
    "methods": {},
    "version": 1
  },
  "userdoc": {
    "kind": "user",
    "methods": {},
    "version": 1
  }
}