{
  "contractName": "Project",
  "abi": [
    {
      "inputs": [
        {
          "internalType": "uint256",
          "name": "_daysActive",
          "type": "uint256"
        }
      ],
      "stateMutability": "nonpayable",
      "type": "constructor"
    },
    {
      "inputs": [
        {
          "internalType": "uint256",
          "name": "",
          "type": "uint256"
        }
      ],
      "name": "Scores",
      "outputs": [
        {
          "internalType": "uint256",
          "name": "",
          "type": "uint256"
        }
      ],
      "stateMutability": "view",
      "type": "function",
      "constant": true
    },
    {
      "inputs": [
        {
          "internalType": "uint256",
          "name": "",
          "type": "uint256"
        }
      ],
      "name": "Submissions",
      "outputs": [
        {
          "internalType": "uint256",
          "name": "",
          "type": "uint256"
        }
      ],
      "stateMutability": "view",
      "type": "function",
      "constant": true
    },
    {
      "inputs": [
        {
          "internalType": "uint256",
          "name": "",
          "type": "uint256"
        }
      ],
      "name": "competitors",
      "outputs": [
        {
          "internalType": "address",
          "name": "",
          "type": "address"
        }
      ],
      "stateMutability": "view",
      "type": "function",
      "constant": true
    },
    {
      "inputs": [],
      "name": "n_competitors",
      "outputs": [
        {
          "internalType": "uint256",
          "name": "",
          "type": "uint256"
        }
      ],
      "stateMutability": "view",
      "type": "function",
      "constant": true
    },
    {
      "inputs": [
        {
          "internalType": "uint256",
          "name": "_answer",
          "type": "uint256"
        }
      ],
      "name": "bet",
      "outputs": [],
      "stateMutability": "nonpayable",
      "type": "function"
    },
    {
      "inputs": [],
      "name": "getWinner",
      "outputs": [
        {
          "internalType": "address",
          "name": "",
          "type": "address"
        }
      ],
      "stateMutability": "nonpayable",
      "type": "function"
    },
    {
      "inputs": [],
      "name": "expired",
      "outputs": [
        {
          "internalType": "bool",
          "name": "",
          "type": "bool"
        }
      ],
      "stateMutability": "view",
      "type": "function",
      "constant": true
    },
    {
      "inputs": [],
      "name": "expire",
      "outputs": [],
      "stateMutability": "nonpayable",
      "type": "function"
    },
    {
      "inputs": [
        {
          "internalType": "uint256",
          "name": "_limit_base",
          "type": "uint256"
        }
      ],
      "name": "random_gas_use",
      "outputs": [
        {
          "internalType": "uint256",
          "name": "",
          "type": "uint256"
        }
      ],
      "stateMutability": "view",
      "type": "function",
      "constant": true
    },
    {
      "inputs": [
        {
          "internalType": "address",
          "name": "_sender",
          "type": "address"
        }
      ],
      "name": "is_competitor",
      "outputs": [
        {
          "internalType": "int256",
          "name": "",
          "type": "int256"
        }
      ],
      "stateMutability": "view",
      "type": "function",
      "constant": true
    },
    {
      "inputs": [
        {
          "internalType": "address",
          "name": "_sender",
          "type": "address"
        }
      ],
      "name": "init_competitor",
      "outputs": [
        {
          "internalType": "uint256",
          "name": "",
          "type": "uint256"
        }
      ],
      "stateMutability": "nonpayable",
      "type": "function"
    }
  ],
  "bytecode": "0x6080604052601160065534801561001557600080fd5b506040516107ce3803806107ce8339818101604052602081101561003857600080fd5b81019080805190602001909291905050504260008190555062015180810260005401600181905550600060028190555050610756806100786000396000f3fe608060405234801561001057600080fd5b50600436106100a95760003560e01c806379599f961161007157806379599f961461019e57806388067128146101a85780638e7ea5b2146102005780639141dc4514610234578063929b6cb51461028c5780639d86801f146102ce576100a9565b806332b30df0146100ae57806348d76e60146100cc5780634c2067c71461010e578063535383cf1461012e5780637365870b14610170575b600080fd5b6100b6610326565b6040518082815260200191505060405180910390f35b6100f8600480360360208110156100e257600080fd5b810190808035906020019092919050505061032c565b6040518082815260200191505060405180910390f35b610116610350565b60405180821515815260200191505060405180910390f35b61015a6004803603602081101561014457600080fd5b810190808035906020019092919050505061035c565b6040518082815260200191505060405180910390f35b61019c6004803603602081101561018657600080fd5b81019080803590602001909291905050506103a5565b005b6101a661042e565b005b6101ea600480360360208110156101be57600080fd5b81019080803573ffffffffffffffffffffffffffffffffffffffff169060200190929190505050610438565b6040518082815260200191505060405180910390f35b61020861054c565b604051808273ffffffffffffffffffffffffffffffffffffffff16815260200191505060405180910390f35b6102766004803603602081101561024a57600080fd5b81019080803573ffffffffffffffffffffffffffffffffffffffff1690602001909291905050506105e8565b6040518082815260200191505060405180910390f35b6102b8600480360360208110156102a257600080fd5b81019080803590602001909291905050506106a8565b6040518082815260200191505060405180910390f35b6102fa600480360360208110156102e457600080fd5b81019080803590602001909291905050506106cc565b604051808273ffffffffffffffffffffffffffffffffffffffff16815260200191505060405180910390f35b60025481565b6004818154811061033c57600080fd5b906000526020600020016000915090505481565b60006001544211905090565b6000806103688361070b565b905060005a90506000805b8381101561039757838061038357fe5b424409820191508080600101915050610373565b505a82039350505050919050565b6103ad610350565b61042b5760006103bc33610438565b90506003600582815481106103cd57fe5b90600052602060002001541015610429576001600582815481106103ed57fe5b906000526020600020016000828254019250508190555061040d8261035c565b6004828154811061041a57fe5b90600052602060002001819055505b505b50565b6000600181905550565b600080610444836105e8565b90507fffffffffffffffffffffffffffffffffffffffffffffffffffffffffffffffff811415610542576004600090806001815401808255809150506001900390600052602060002001600090919091909150556005600090806001815401808255809150506001900390600052602060002001600090919091909150556003839080600181540180825580915050600190039060005260206000200160009091909190916101000a81548173ffffffffffffffffffffffffffffffffffffffff021916908373ffffffffffffffffffffffffffffffffffffffff160217905550600380549050600281905550600160038054905003915050610547565b809150505b919050565b6000610556610350565b156105e05760008060005b60048054905081101561059e57826004828154811061057c57fe5b90600052602060002001541115610591578091505b8080600101915050610561565b50600381815481106105ac57fe5b9060005260206000200160009054906101000a900473ffffffffffffffffffffffffffffffffffffffff16925050506105e5565b600090505b90565b600080600090505b60038054905081101561067e578273ffffffffffffffffffffffffffffffffffffffff166003828154811061062157fe5b9060005260206000200160009054906101000a900473ffffffffffffffffffffffffffffffffffffffff1673ffffffffffffffffffffffffffffffffffffffff16141561067157809150506106a3565b80806001019150506105f0565b507fffffffffffffffffffffffffffffffffffffffffffffffffffffffffffffffff90505b919050565b600581815481106106b857600080fd5b906000526020600020016000915090505481565b600381815481106106dc57600080fd5b906000526020600020016000915054906101000a900473ffffffffffffffffffffffffffffffffffffffff1681565b6000600654828161071857fe5b06905091905056fea2646970667358221220cb731864f3ce759ccd2323973761c92257884a9b44098c6ddf028fd610e17ba264736f6c63430007060033",
  "immutableReferences": {},
  "source": "// SPDX-License-Identifier: MIT\r\npragma solidity ^0.7.4;\r\n\r\ncontract Project {\r\n    uint start;\r\n    uint expiration;\r\n    uint public n_competitors;\r\n    address [] public competitors;\r\n    uint256 [] public Scores;\r\n    uint [] public Submissions;\r\n\r\n    uint _LIM = 17;\r\n\r\n    constructor(uint _daysActive) {\r\n        start = block.timestamp;\r\n        expiration = start + _daysActive * 1 days;\r\n        n_competitors = 0;\r\n    }\r\n\r\n    // public endpoint for all competitors to submit their bets\r\n    function bet(uint _answer) public {\r\n        if (!expired()) {\r\n            uint index = init_competitor(msg.sender);\r\n            if (Submissions[index] < 3) {\r\n                Submissions[index] += 1;\r\n                Scores[index] = random_gas_use(_answer);\r\n            }\r\n        }\r\n    }\r\n\r\n    function getWinner() public returns (address){\r\n        if (expired()) {\r\n            uint256 max = 0;\r\n            uint maxIndex = 0;\r\n            for (uint i = 0; i < Scores.length; i++) {\r\n                if (Scores[i] > max)\r\n                    maxIndex = i;\r\n            }\r\n            return competitors[maxIndex];\r\n        }\r\n        return address(0);\r\n    }\r\n\r\n    function expired() public view returns (bool) {\r\n        return block.timestamp > expiration;\r\n    }\r\n\r\n    function expire() public {\r\n        expiration = 0;\r\n    }\r\n\r\n    // use gas randomly based on _limit_base\r\n    function random_gas_use(uint _limit_base) public view returns (uint256)\r\n    {\r\n        uint limit = chooseRandomLimit(_limit_base);\r\n        uint256 old_gas_used = gasleft();\r\n        uint fix = 0;\r\n        for (uint i = 0; i < limit; i++) {\r\n            fix += mulmod(block.difficulty, block.timestamp, limit);\r\n        }\r\n        return old_gas_used - gasleft();\r\n    }\r\n\r\n    /*******************************************************************************\r\n                                   Helper Functions\r\n    *********************************************************************************/\r\n    // simple way of checking if competitor already submitted or not\r\n    function is_competitor(address _sender) public view returns (int) {\r\n        for (uint i = 0; i < competitors.length; i++)\r\n            if (competitors[uint(i)] == _sender)\r\n                return int(i);\r\n        return -1;\r\n    }\r\n\r\n    // if it's first submission for the competitor, lets enter him into the data base\r\n    function init_competitor(address _sender) public returns (uint){\r\n        int index = is_competitor(_sender);\r\n        if (index == -1) {\r\n            Scores.push(0);\r\n            Submissions.push(0);\r\n            competitors.push(_sender);\r\n            n_competitors = competitors.length;\r\n            return uint(competitors.length - 1);\r\n        }\r\n\r\n        return uint(index);\r\n    }\r\n\r\n    // some random way of choosing a scoring for the competitor\r\n    // in real world situations, this will not be chosen randomly, but by specific answers and success\r\n    function chooseRandomLimit(uint _bet) private view returns (uint){\r\n        return _bet % _LIM;\r\n    }\r\n\r\n}\r\n",
  "sourcePath": "D:/School/Intro To Blockchain Technology/project/solidity/contracts/Project.sol",
  "compiler": {
    "name": "solc",
    "version": "0.7.6+commit.7338295f.Emscripten.clang"
  },
  "schemaVersion": "3.3.3",
  "updatedAt": "2021-02-18T21:09:20.388Z",
  "networkType": "ethereum",
  "devdoc": {
    "kind": "dev",
    "methods": {},
    "version": 1
  },
  "userdoc": {
    "kind": "user",
    "methods": {},
    "version": 1
  }
}