{
  "contractName": "Project",
  "abi": [
    {
      "inputs": [
        {
          "internalType": "uint256",
          "name": "_daysActive",
          "type": "uint256"
        }
      ],
      "stateMutability": "nonpayable",
      "type": "constructor"
    },
    {
      "inputs": [],
      "name": "getCompetitors",
      "outputs": [
        {
          "internalType": "address[]",
          "name": "",
          "type": "address[]"
        }
      ],
      "stateMutability": "view",
      "type": "function",
      "constant": true
    },
    {
      "inputs": [],
      "name": "getScores",
      "outputs": [
        {
          "internalType": "uint256[]",
          "name": "",
          "type": "uint256[]"
        }
      ],
      "stateMutability": "view",
      "type": "function",
      "constant": true
    },
    {
      "inputs": [],
      "name": "getSubmissions",
      "outputs": [
        {
          "internalType": "uint256[]",
          "name": "",
          "type": "uint256[]"
        }
      ],
      "stateMutability": "view",
      "type": "function",
      "constant": true
    },
    {
      "inputs": [
        {
          "internalType": "uint256",
          "name": "_answer",
          "type": "uint256"
        }
      ],
      "name": "bet",
      "outputs": [],
      "stateMutability": "nonpayable",
      "type": "function"
    },
    {
      "inputs": [],
      "name": "getWinner",
      "outputs": [
        {
          "internalType": "address",
          "name": "",
          "type": "address"
        }
      ],
      "stateMutability": "nonpayable",
      "type": "function"
    },
    {
      "inputs": [],
      "name": "expired",
      "outputs": [
        {
          "internalType": "bool",
          "name": "",
          "type": "bool"
        }
      ],
      "stateMutability": "view",
      "type": "function",
      "constant": true
    },
    {
      "inputs": [],
      "name": "expire",
      "outputs": [],
      "stateMutability": "nonpayable",
      "type": "function"
    },
    {
      "inputs": [
        {
          "internalType": "uint256",
          "name": "_limit_base",
          "type": "uint256"
        }
      ],
      "name": "random_gas_use",
      "outputs": [
        {
          "internalType": "uint256",
          "name": "",
          "type": "uint256"
        }
      ],
      "stateMutability": "view",
      "type": "function",
      "constant": true
    },
    {
      "inputs": [
        {
          "internalType": "address",
          "name": "_sender",
          "type": "address"
        }
      ],
      "name": "is_competitor",
      "outputs": [
        {
          "internalType": "int256",
          "name": "",
          "type": "int256"
        }
      ],
      "stateMutability": "view",
      "type": "function",
      "constant": true
    },
    {
      "inputs": [
        {
          "internalType": "address",
          "name": "_sender",
          "type": "address"
        }
      ],
      "name": "init_competitor",
      "outputs": [
        {
          "internalType": "uint256",
          "name": "",
          "type": "uint256"
        }
      ],
      "stateMutability": "nonpayable",
      "type": "function"
    }
  ],
  "bytecode": "0x6080604052601160055534801561001557600080fd5b5060405161089b38038061089b8339818101604052602081101561003857600080fd5b810190808051906020019092919050505042600081905550620151808102600054016001819055505061082b806100706000396000f3fe608060405234801561001057600080fd5b506004361061009e5760003560e01c806379599f961161006657806379599f96146101f157806388067128146101fb5780638e7ea5b2146102535780639141dc4514610287578063a1330ae3146102df5761009e565b80631ea1380c146100a35780634c2067c714610102578063535383cf1461012257806354f6aa20146101645780637365870b146101c3575b600080fd5b6100ab61033e565b6040518080602001828103825283818151815260200191508051906020019060200280838360005b838110156100ee5780820151818401526020810190506100d3565b505050509050019250505060405180910390f35b61010a610396565b60405180821515815260200191505060405180910390f35b61014e6004803603602081101561013857600080fd5b81019080803590602001909291905050506103a2565b6040518082815260200191505060405180910390f35b61016c6103eb565b6040518080602001828103825283818151815260200191508051906020019060200280838360005b838110156101af578082015181840152602081019050610194565b505050509050019250505060405180910390f35b6101ef600480360360208110156101d957600080fd5b8101908080359060200190929190505050610443565b005b6101f96104cc565b005b61023d6004803603602081101561021157600080fd5b81019080803573ffffffffffffffffffffffffffffffffffffffff1690602001909291905050506104d6565b6040518082815260200191505060405180910390f35b61025b6105de565b604051808273ffffffffffffffffffffffffffffffffffffffff16815260200191505060405180910390f35b6102c96004803603602081101561029d57600080fd5b81019080803573ffffffffffffffffffffffffffffffffffffffff16906020019092919050505061067a565b6040518082815260200191505060405180910390f35b6102e761073a565b6040518080602001828103825283818151815260200191508051906020019060200280838360005b8381101561032a57808201518184015260208101905061030f565b505050509050019250505060405180910390f35b60608060005b60038054905081101561038e576003818154811061035e57fe5b906000526020600020015482828151811061037557fe5b6020026020010181815250508080600101915050610344565b508091505090565b60006001544211905090565b6000806103ae836107e0565b905060005a90506000805b838110156103dd5783806103c957fe5b4244098201915080806001019150506103b9565b505a82039350505050919050565b60608060005b60048054905081101561043b576004818154811061040b57fe5b906000526020600020015482828151811061042257fe5b60200260200101818152505080806001019150506103f1565b508091505090565b61044b610396565b6104c957600061045a336104d6565b905060036004828154811061046b57fe5b906000526020600020015410156104c75760016004828154811061048b57fe5b90600052602060002001600082825401925050819055506104ab826103a2565b600382815481106104b857fe5b90600052602060002001819055505b505b50565b6000600181905550565b6000806104e28361067a565b90507fffffffffffffffffffffffffffffffffffffffffffffffffffffffffffffffff8114156105d4576003600090806001815401808255809150506001900390600052602060002001600090919091909150556004600090806001815401808255809150506001900390600052602060002001600090919091909150556002839080600181540180825580915050600190039060005260206000200160009091909190916101000a81548173ffffffffffffffffffffffffffffffffffffffff021916908373ffffffffffffffffffffffffffffffffffffffff1602179055506001600280549050039150506105d9565b809150505b919050565b60006105e8610396565b156106725760008060005b60038054905081101561063057826003828154811061060e57fe5b90600052602060002001541115610623578091505b80806001019150506105f3565b506002818154811061063e57fe5b9060005260206000200160009054906101000a900473ffffffffffffffffffffffffffffffffffffffff1692505050610677565b600090505b90565b600080600090505b600280549050811015610710578273ffffffffffffffffffffffffffffffffffffffff16600282815481106106b357fe5b9060005260206000200160009054906101000a900473ffffffffffffffffffffffffffffffffffffffff1673ffffffffffffffffffffffffffffffffffffffff1614156107035780915050610735565b8080600101915050610682565b507fffffffffffffffffffffffffffffffffffffffffffffffffffffffffffffffff90505b919050565b60608060005b6002805490508110156107d8576002818154811061075a57fe5b9060005260206000200160009054906101000a900473ffffffffffffffffffffffffffffffffffffffff1682828151811061079157fe5b602002602001019073ffffffffffffffffffffffffffffffffffffffff16908173ffffffffffffffffffffffffffffffffffffffff16815250508080600101915050610740565b508091505090565b600060055482816107ed57fe5b06905091905056fea2646970667358221220e0208ae1ff664eeef5c01957502a1bf40ddf87026d2471c6757a83530527db1764736f6c63430007060033",
  "immutableReferences": {},
  "source": "// SPDX-License-Identifier: MIT\r\npragma solidity ^0.7.4;\r\n\r\ncontract Project {\r\n    uint start;\r\n    uint expiration;\r\n    address [] competitors;\r\n    uint256 [] Scores;\r\n    uint [] Submissions;\r\n\r\n    uint _LIM = 17;\r\n\r\n    constructor(uint _daysActive) {\r\n        start = block.timestamp;\r\n        expiration = start + _daysActive * 1 days;\r\n    }\r\n\r\n    function getCompetitors() public view returns (address [] memory) {\r\n        address [] memory comp_copy;\r\n        for (uint i = 0; i < competitors.length; i++)\r\n            comp_copy[i] = competitors[i];\r\n        return comp_copy;\r\n    }\r\n    function getScores() public view returns (uint256 [] memory) {\r\n        uint256 [] memory scores_copy;\r\n        for (uint i = 0; i < Scores.length; i++)\r\n            scores_copy[i] = Scores[i];\r\n        return scores_copy;\r\n    }\r\n    function getSubmissions() public view returns (uint [] memory) {\r\n        uint [] memory submissions_copy;\r\n        for (uint i = 0; i < Submissions.length; i++)\r\n            submissions_copy[i] = Submissions[i];\r\n        return submissions_copy;\r\n    }\r\n\r\n    // public endpoint for all competitors to submit their bets\r\n    function bet(uint _answer) public {\r\n        if (!expired()) {\r\n            uint index = init_competitor(msg.sender);\r\n            if (Submissions[index] < 3) {\r\n                Submissions[index] += 1;\r\n                Scores[index] = random_gas_use(_answer);\r\n            }\r\n        }\r\n    }\r\n\r\n    function getWinner() public returns (address){\r\n        if (expired()) {\r\n            uint256 max = 0;\r\n            uint maxIndex = 0;\r\n            for (uint i = 0; i < Scores.length; i++) {\r\n                if (Scores[i] > max)\r\n                    maxIndex = i;\r\n            }\r\n            return competitors[maxIndex];\r\n        }\r\n        return address(0);\r\n    }\r\n\r\n    function expired() public view returns (bool) {\r\n        return block.timestamp > expiration;\r\n    }\r\n\r\n    function expire() public {\r\n        expiration = 0;\r\n    }\r\n\r\n    // use gas randomly based on _limit_base\r\n    function random_gas_use(uint _limit_base) public view returns (uint256)\r\n    {\r\n        uint limit = chooseRandomLimit(_limit_base);\r\n        uint256 old_gas_used = gasleft();\r\n        uint fix = 0;\r\n        for (uint i = 0; i < limit; i++) {\r\n            fix += mulmod(block.difficulty, block.timestamp, limit);\r\n        }\r\n        return old_gas_used - gasleft();\r\n    }\r\n\r\n    /*******************************************************************************\r\n                                   Helper Functions\r\n    *********************************************************************************/\r\n    // simple way of checking if competitor already submitted or not\r\n    function is_competitor(address _sender) public view returns (int) {\r\n        for (uint i = 0; i < competitors.length; i++)\r\n            if (competitors[uint(i)] == _sender)\r\n                return int(i);\r\n        return -1;\r\n    }\r\n\r\n    // if it's first submission for the competitor, lets enter him into the data base\r\n    function init_competitor(address _sender) public returns (uint){\r\n        int index = is_competitor(_sender);\r\n        if (index == -1) {\r\n            Scores.push(0);\r\n            Submissions.push(0);\r\n            competitors.push(_sender);\r\n            return uint(competitors.length - 1);\r\n        }\r\n\r\n        return uint(index);\r\n    }\r\n\r\n    // some random way of choosing a scoring for the competitor\r\n    // in real world situations, this will not be chosen randomly, but by specific answers and success\r\n    function chooseRandomLimit(uint _bet) private view returns (uint){\r\n        return _bet % _LIM;\r\n    }\r\n\r\n}\r\n",
  "sourcePath": "D:/School/Intro To Blockchain Technology/project/solidity/contracts/Project.sol",
  "compiler": {
    "name": "solc",
    "version": "0.7.6+commit.7338295f.Emscripten.clang"
  },
  "schemaVersion": "3.3.3",
  "updatedAt": "2021-02-17T21:49:11.433Z",
  "networkType": "ethereum",
  "devdoc": {
    "kind": "dev",
    "methods": {},
    "version": 1
  },
  "userdoc": {
    "kind": "user",
    "methods": {},
    "version": 1
  }
}